:100000000C942A000C943F000C943F000C943F0089
:100010000C943F000C943F000C943F000C943F0064
:100020000C943F000C943F000C943F000C943F0054
:100030000C943F000C943F000C943F000C943F0044
:100040000C943F000C943F000C943F000C943F0034
:100050000C943F0011241FBECFE5D8E0DEBFCDBF1A
:1000600010E0A0E6B0E0ECECF4E002C005900D92E8
:10007000AA37B107D9F70E94C8010C9464020C9406
:1000800000009BB3977F9BBB98B3987E98BB282FAB
:1000900022952F70922F9870492F50E0440F551FD2
:1000A0002770422B98B3492B48BB9BB39B7F9BBBCC
:1000B0009BB394609BBBE9EFF0E03197F1F700C090
:1000C00000009BB39B7F9BBB98B3987E98BB982FF7
:1000D0009870292F30E0220F331F8770282B88B3A8
:1000E000282B28BB8BB38B7F8BBB8BB384608BBBE4
:1000F00089EF90E00197F1F700C000008BB38B7F90
:100100008BBBE1EEF4E03197F1F700C000000895F9
:100110008AB388608ABB8AB384608ABB87B38160F4
:1001200087BB87B3826087BB87B3846087BB87B395
:10013000806187BB85EA9EE00197F1F700C000006F
:1001400086E00E94410082E00E94410088E20E9415
:1001500041008CE00E94410081E00E94410080E863
:100160000E94410008959BB398609BBB98B3987E12
:1001700098BB282F22952F70922F9870492F50E00E
:10018000440F551F2770422B98B3492B48BB9BB394
:100190009B7F9BBB9BB394609BBBE9EFF0E03197E7
:1001A000F1F700C000009BB39B7F9BBB98B3987E88
:1001B00098BB982F9870292F30E0220F331F87703B
:1001C000282B88B3282B28BB8BB38B7F8BBB8BB39F
:1001D00084608BBB89EF90E00197F1F700C00000CD
:1001E0008BB38B7F8BBB08950F931F93CF93DF93BC
:1001F000EC018B0180E20E94B300F80180819181C3
:10020000019691838083C83EF3E0DF074CF480E2DF
:100210000E94B300F80180819181019691838083CF
:10022000C436D1054CF480E20E94B300F80180810D
:100230009181019691838083CA30D1054CF480E28C
:100240000E94B300F801808191810196918380839F
:10025000C83EF3E0DF079CF0CE0168EE73E00E9439
:100260003C02CB016AE070E00E943C02805D0E948B
:10027000B300F80180819181019691838083C43617
:10028000D1059CF0CE0164E670E00E943C02CB01F7
:100290006AE070E00E943C02805D0E94B300F801B9
:1002A00080819181019691838083CA30D1059CF031
:1002B0002AE030E0CE01B9010E943C02CB01B90135
:1002C0000E943C02805D0E94B300F8018081918110
:1002D000019691838083CE016AE070E00E943C0227
:1002E000805D0E94B300F801808191810196918325
:1002F0008083DF91CF911F910F91089581E00E943B
:100300004100089520E030E007C06AE070E00E94FC
:100310003C02CB012F5F3F4F18161906B4F3C901F9
:1003200008950F931F93CF93DF93C0E0D0E025C0D3
:10033000D901AA0FBB1FA80FB91F4D915C9111974E
:10034000F9013196EE0FFF1FE80FF91F00811181AF
:100350000417150724F40D931C93518340832F5FDA
:100360003F4F02C020E030E0AB014C1B5D0B415021
:10037000510924173507E4F221969B0121503109D8
:10038000C217D3077CF3DF91CF911F910F9108958E
:10039000CF93DF93CDB7DEB76C970FB6F894DEBF7F
:1003A0000FBECDBF1A8219820E9488008AE1E0E662
:1003B000F0E0DE01139601900D928A95E1F76DE071
:1003C00070E0CE0103960E94910100E010E04FC062
:1003D000F801EE0FFF1F81E090E08C0F9D1FE80FEA
:1003E000F91F828193810E9482017C0129813A81D7
:1003F0002331310554F482E190E0821B930B8E157A
:100400009F051CF480E20E94B30029813A818EE1AD
:1004100090E0821B930B8E159F056CF40E947E0169
:100420008FE99FE00197F1F700C000001A8219825E
:1004300080E80E944100F801EE0FFF1F81E090E08C
:100440008C0F9D1FE80FF91FBC01828193810E94D0
:10045000F40080E20E94B3009FEF23ED80E391500F
:1004600020408040E1F700C000000F5F1F4F0D30BB
:1004700011050CF4ADCFFFCF97FB072E16F40094B7
:1004800007D077FD09D00E94500207FC05D03EF44A
:10049000909581959F4F0895709561957F4F089530
:1004A000AA1BBB1B51E107C0AA1FBB1FA617B7079A
:1004B00010F0A61BB70B881F991F5A95A9F78095B6
:0C04C0009095BC01CD010895F894FFCF89
:1004CC00E803D007A5040C079F04B122D1205907DB
:0A04DC006526001758071C0A0F27B9
:00000001FF
