S00E000066696E616C322E73726563DA
S11300000C942A000C9447000C9447000C9447006D
S11300100C9447000C9447000C9447000C94470040
S11300200C9447000C9447000C9447000C94EA038A
S11300300C9447000C9447000C9447000C94470020
S11300400C9447000C9447000C9447000C94470010
S11300500C94470011241FBECFE5D8E0DEBFCDBF0E
S113006010E0A0E6B0E0EAE4F8E002C005900D92EA
S1130070A438B107D9F720E0A4E8B0E001C01D928C
S1130080A738B207E1F70E944C020C9423040C94A5
S1130090000084B3846084BB84B3886084BB84B36D
S11300A0806184BB84B3806284BB81B38F7781BB5E
S11300B081B38F7B81BB81B38F7D81BB81B3877F0C
S11300C081BB82B3806882BB82B3806482BB82B30B
S11300D0806282BB82B3886082BB089565E070E071
S11300E08FEF50C095B39C6395BB95B321E030E08E
S11300F0062E02C0220F331F0A94E2F7209529230B
S113010025BB27E030E039C02430310511F42150FB
S1130110310940B350E0022E02C0559547950A9428
S1130120E2F740FD28C04FEF5BED95E041505040B1
S11301309040E1F700C0000040B350E0022E02C03E
S1130140559547950A94E2F740FD15C023303105D3
S113015091F085E090E0861B970B47E050E0421B4E
S1130160530B880F991F880F991F805A9F4FFC01CA
S1130170E40FF51F8081215031092330310524F625
S113018061507109623071050CF0ACCF089520E024
S113019030E007C06AE070E00E94FB03CB012F5FF0
S11301A03F4F18161906B4F3C90108959BB3977FFE
S11301B09BBB98B3987E98BB282F22952F70922FC3
S11301C09870492F50E0440F551F2770422B98B365
S11301D0492B48BB9BB39B7F9BBB9BB394609BBB4E
S11301E0EFE9FFE03197F1F700C000009BB39B7F7C
S11301F09BBB98B3987E98BB982F9870292F30E0BA
S1130200220F331F8770282B88B3282B28BB8BB36E
S11302108B7F8BBB8BB384608BBB8FE99FE0019793
S1130220F1F700C000008BB38B7F8BBBEFE1FEE4E2
S11302303197F1F700C0000008958AB388608ABB43
S11302408AB384608ABB87B3816087BB87B38260CB
S113025087BB87B3846087BB87B3806187BB8FE527
S11302609AEE0197F1F700C0000086E00E94D600E4
S113027082E00E94D60088E20E94D6008CE00E94B0
S1130280D60081E00E94D60080E80E94D60008953E
S11302909BB398609BBB98B3987E98BB282F2295FC
S11302A02F70922F9870492F50E0440F551F2770DC
S11302B0422B98B3492B48BB9BB39B7F9BBB9BB3FF
S11302C094609BBBEFE9FFE03197F1F700C00000B9
S11302D09BB39B7F9BBB98B3987E98BB982F9870D9
S11302E0292F30E0220F331F8770282B88B3282B47
S11302F028BB8BB38B7F8BBB8BB384608BBB8FE9A9
S11303009FE00197F1F700C000008BB38B7F8BBB9C
S1130310EFE1FEE43197F1F700C00000089581E0B9
S11303200E94D60088B3887E88BB0895AF92BF929E
S1130330CF92DF92EF92FF920F931F93CF93DF93AD
S11303405C016B01E12CF12C98C08701000F111F97
S11303500A0D1B1DF801808191810E94C700EC01E8
S11303608091840090918500833191055CF422E1B1
S113037030E0A901481B590B4C175D071CF480E2BF
S11303800E94480120918400309185008EE190E024
S1130390821B930B8C179D077CF40E948F018FE3C3
S11303A09FE10197F1F700C00000109285001092C0
S11303B0840080E80E94D60080E20E944801809177
S11303C08400909185000196909385008093840029
S11303D0C8EED3E02DC0F801808191818C179D0770
S11303E06CF480E20E944801809184009091850021
S11303F00196909385008093840014C0BE010E94EE
S1130400FB03CB016AE070E00E94FB03805D0E9465
S11304104801809184009091850001969093850015
S113042080938400CE016AE070E00E94FB03EB013C
S1130430C230D10584F6F801808191816AE070E0D0
S11304400E94FB03805D0E9448018091840090918A
S113045085000196909385008093840080E20E9439
S11304604801FFEF23ED40E3F15020404040E1F725
S113047000C000005FEFE51AF50AEC14FD040CF46B
S113048064CFDF91CF911F910F91FF90EF90DF9098
S1130490CF90BF90AF900895CF93DF93CDB7DEB7E1
S11304A0AA970FB6F894DEBF0FBECDBF8FEF9FEFB4
S11304B09A8389830E9449000E941D01E12CF12C3A
S11304C00E946E00182F8D33D9F489819A81019688
S11304D0B9F30E948F01F701EE0FFF1F81E090E056
S11304E08C0F9D1FE80FF91F89819A819383828362
S11304F08FEF9FEF9A838983C70101967C01E0CF38
S1130500853629F589819A810196D1F6B701CE0104
S113051003960E943403B701CE0103960E9496010C
S11305208FEF93ED20E3815090402040E1F700C02D
S11305300000B701CE0103960E94D0020E941D0163
S11305408FEF9FEF9A838983E12CF12CB9CF8F3FF2
S113055009F4B6CF0E944801612FCE0101960E9492
S1130560B202AECF6053FC01208131812F3FFFEFF7
S11305703F0729F470E0FC01718360830895A901A9
S1130580440F551F220F331F220F331F220F331F17
S1130590240F351F260F311DFC013183208308955C
S11305A06F927F928F929F92AF92BF92CF92DF927F
S11305B0EF92FF920F931F93CF93DF936C017B0114
S11305C000E010E030C0E801CC0FDD1FCC0DDD1DD4
S11305D0888099800E94E0031EC081149104A1F4D4
S11305E021E030E059018FEFA81AB80AC4016AE08B
S11305F070E00E94FB03662E772EB9010E94680307
S1130600862C972C950102C021E030E018141904BF
S11306104CF388809980809186008D33F1F6109296
S113062086000F5F1F4F0E151F056CF28BB38B7F77
S11306308BBB8BB384608BBB8FE99FE00197F1F791
S113064000C000008BB38B7F8BBBDF91CF911F91D8
S11306500F91FF90EF90DF90CF90BF90AF909F905D
S11306608F907F906F900895EF92FF920F931F9356
S1130670CF93DF93C0E0D0E021C08E010F5F1F4F06
S1130680980118C0DE01AA0FBB1FA80FB91F4D9116
S11306905C911197F901EE0FFF1FE80FF91FE0803D
S11306A0F180E416F50624F4ED92FC925183408324
S11306B02F5F3F4F261737072CF3E801C617D707DC
S11306C0E4F2DF91CF911F910F91FF90EF90089585
S11306D0CF93DF93CDB7DEB764970FB6F894DEBF40
S11306E00FBECDBF2AB324602ABB2AB328602ABB1D
S11306F027B3206227BB27B3206427BB2BB3246016
S11307002BBB2BB328602BBB28B3206228BB28B398
S1130710206428BB28B3287E28BB24E1E0E7F0E06E
S1130720DE01119601900D922A95E1F728B3880F06
S1130730991FE1E0F0E0EC0FFD1FE80FF91F808145
S1130740822B88BB63307105DCF46130710511F4D0
S11307506E5F7F4F2BB381E090E002C0880F991F3A
S11307606A95E2F7982F909592239BBBEFE9FFE0FF
S11307703197F1F700C000009BB3892B8BBB17C0E6
S11307806E5F7F4F28B381E090E002C0880F991F0D
S11307906A95E2F7982F9095922398BBEFE9FFE0D2
S11307A03197F1F700C0000098B3892B88BB649699
S11307B00FB6F894DEBF0FBECDBFDF91CF91089581
S11307C012BE89B7816089BF85E883BF8FB780680F
S11307D08FBF08951F920F920FB60F9211248F931B
S11307E0809186008F5F809386008F910F900FBE5B
S11307F00F901F90189597FB072E16F4009407D0BE
S113080077FD09D00E940F0407FC05D03EF49095B3
S113081081959F4F0895709561957F4F0895AA1B08
S1130820BB1B51E107C0AA1FBB1FA617B70710F0D7
S1130830A61BB70B881F991F5A95A9F78095909509
S10D0840BC01CD010895F894FFCF28
S113084A3738392F3435362A3132332D65303D2B3A
S113085A000001000200030004000500060007006E
S107086A1000110065
S9030000FC
